:020000040800F2
:1000000008110020A90200080503000805030008E4
:1000100005030008050300080503000800000000B0
:1000200000000000000000000000000005030008C0
:100030000503000800000000050300081D3A000841
:100040000503000805030008050300080503000870
:100050000503000805030008050300080503000860
:100060000503000805030008050300080503000850
:100070000503000805030008050300080503000840
:100080000503000805030008050300080503000830
:100090000503000805030008050300080503000820
:1000A0000503000805030008050300080503000810
:1000B0000503000805030008050300080503000800
:1000C00005030008050300080503000805030008F0
:1000D00005030008050300080503000805030008E0
:1000E00005030008050300080503000805030008D0
:1000F00005030008050300080503000805030008C0
:1001000005030008050300080503000805030008AF
:10011000050300080503000805030008050300089F
:10012000050300080503000805030008050300088F
:100130005FF808F180B500AF154A154B1B6843F016
:10014000010313601249124B5A68124B13404B6063
:100150000F4A0F4B1B6823F0847323F48033136022
:100160000B4A0B4B1B6823F480231360084A084B8F
:100170005B6823F4FE035360054B4FF41F029A6043
:1001800000F00CF8044B4FF000629A6080BD00BF95
:10019000001002400000FFF800ED00E080B500AF65
:1001A00000F002F880BD00BF80B483B000AF002330
:1001B0007B6000233B603A4A394B1B6843F4803331
:1001C0001360374B1B6803F400333B607B680133DB
:1001D0007B603B68002B03D17B68B3F5A06FF0D147
:1001E0002F4B1B6803F40033002B02D001233B602C
:1001F00001E000233B603B68012B4BD1294A294B8E
:100200001B6843F010031360264A264B1B6823F03B
:1002100003031360234A234B1B6843F0020313605C
:100220001F4A1F4B5B6853601D4A1D4B5B68536040
:100230001B4A1B4B5B6843F480635360184A184B9E
:100240005B6823F47C135360154A154B5B6843F4D9
:10025000E8135360124A124B1B6843F0807313601B
:1002600000BF0F4B1B6803F00073002BF9D00C4A42
:100270000B4B5B6823F003035360094A084B5B6830
:1002800043F00203536000BF054B5B6803F00C03AF
:10029000082BF9D10C37BD465DF8047B704700BFD1
:1002A000001002400020024080B582B000AF104B29
:1002B0007B60104B3B6007E03B681A1D3A607A6830
:1002C000111D796012681A603B680B4A9342F3D3A0
:1002D0000A480B494FF000028842B8BF40F8042B8F
:1002E000FADBFFF727FF00F0E5F90837BD4680BDD0
:1002F000B43A000800000020280000202800002058
:10030000080D002080B400AFFEE700BF80B584B0C8
:1003100000AF0346FB71FB79012B0DD0022B0DD0F2
:10032000002B0DD102F070FDF860FB68002B01D1AD
:10033000002306E0012304E0012302E0012300E0A2
:10034000012318461037BD4680BD00BF80B483B07E
:1003500000AF0346FB71FB79012B08D0022B08D0BC
:10036000002B02D000BF012304E0002302E00023A1
:1003700000E0002318460C37BD465DF8047B70474B
:1003800080B586B000AFB9607A601A460346FB7349
:100390001346BB73BB7B002B01D1042322E0FB7B04
:1003A000012B1BD0022B1BD0002B00D019E0BB7BF4
:1003B000012B05D17868B96803F0E0F8786106E0B0
:1003C000BB7B7868B9681A4603F006F978617B69E7
:1003D000002B01D1002305E0012303E000BF00E072
:1003E00000BF012318461837BD4680BD80B586B0D2
:1003F00000AFB9607A601A460346FB731346BB73BD
:10040000BB7B002B01D104231EE0FB7B002B02D021
:10041000022B17D017E0BB7B012B05D17868B96898
:1004200003F02CF9786106E0BB7B7868B9681A465E
:1004300003F09AF978617B69002B01D1002303E076
:10044000012301E000BF012318461837BD4680BDD7
:1004500080B582B000AF03463A60FB710B46BB71BA
:10046000FB79002B01D004233AE01F4802F020FE64
:10047000BB790E2B33D801A252F823F0B90400083F
:10048000BD040008DF040008D1040008DF040008F0
:10049000DF040008DF040008DF040008DF040008B0
:1004A000DF040008DF040008DF040008DF040008A0
:1004B000DF040008DF040008002311E00A4B5A6C37
:1004C000094B9B6CB2FBF3F23B681A60002307E018
:1004D000054B9B6C9AB23B681A80002300E0042312
:1004E00018460837BD4680BDB00C002080B400AF70
:1004F00000231846BD465DF8047B704780B489B080
:1005000000AF786039600023FB6100233B6100236A
:10051000BB610023FB6000237B610023BB603B6861
:10052000DB7803F00F03FB613B68DB7803F010031B
:10053000002B05D03B689B781A46FB691343FB618F
:100540003B681B88DBB2002B44D07B681B687B6157
:100550000023BB6138E0BB69012202FA03F3FB60B0
:100560003B681B881A46FB6813403B613A69FB688D
:100570009A4226D1BB699B00FB60FB680F2202FAFE
:1005800003F3BB60BB68DB437A6913407B61FB68A4
:10059000FA6902FA03F37A6913437B613B68DB78FB
:1005A000282B05D1BB6901229A407B685A6108E07B
:1005B0003B68DB78482B04D1BB6901229A407B68F9
:1005C0001A61BB690133BB61BB69072BC3D97B6867
:1005D0007A691A603B681B88FF2B4AD97B685B6885
:1005E0007B610023BB613EE0BB6908331A460123EF
:1005F0009340FB603B681B881A46FB6813403B61D5
:100600003A69FB689A422BD1BB699B00FB60FB688F
:100610000F2202FA03F3BB60BB68DB437A69134025
:100620007B61FB68FA6902FA03F37A6913437B6121
:100630003B68DB78282B07D1BB6908331A460123B6
:1006400003FA02F27B685A613B68DB78482B07D1DA
:10065000BB6908331A46012303FA02F27B681A6168
:10066000BB690133BB61BB69072BBDD97B687A6964
:100670005A602437BD465DF8047B704780B483B070
:1006800000AF78600B467B807A887B681A610C37F4
:10069000BD465DF8047B704780B483B000AF7860DE
:1006A0000B467B807A887B685A610C37BD465DF8C3
:1006B000047B704780B582B000AFFFF73BFD252378
:1006C000BB800023FB800CE0B7F90630B7F90620A9
:1006D0006C49895C6C4AD154FB889BB201339BB254
:1006E000FB80B7F90620B7F904309A42ECDB02F040
:1006F0001FFB0020FFF70AFE03461A46634B1A70E1
:10070000624B1B78022B04D0042B04D0012B04D0A5
:1007100004E000BF02E000BF00E000BF5B4B1B78BD
:10072000002B08D100BF0020594901F08DFB034682
:10073000002B05D003E0012003F05CF9D9E7FEE7C8
:1007400054485549022201F0A9FB03461A46534B6F
:100750001A70524B1B78002B0DD04E484E490A227E
:1007600001F09CFB03461A464C4B1A704B4B1B780E
:10077000002B00D0FEE74748002102F0BDF80346F9
:100780001A46464B1A70454B1B78002B00D0FEE7EB
:10079000B7F904303F483C491A46414B01F04CFE42
:1007A00003461A463D4B1A703C4B1B78002B05D173
:1007B000B7F904203A4B1B689A4200D0FEE735484F
:1007C00002F086F8354B1B78002B00D0FEE731484D
:1007D0003149012201F062FB03461A462F4B1A7081
:1007E0002E4B1B78002B00D0FEE72A48002102F098
:1007F00083F803461A46294B1A70284B1B78002BA6
:1008000000D0FEE7B7F90430224826491A46264BA5
:1008100001F0B4FC03461A46204B1A701F4B1B789C
:10082000002B05D1B7F904201F4B1B689A4200D05A
:10083000FEE7184802F04CF803461A46174B1A70A8
:10084000164B1B78002B00D0FEE70023FB8011E045
:10085000B7F906300C4AD15CB7F90630114AD35CBF
:100860004AB25BB29A4200D0FEE7FB889BB20133EA
:100870009BB2FB80B7F90620B7F904309A42E7DB58
:10088000FEE700BF00000020B0040020A404002008
:100890004C00002080020020983A0008AC040020A0
:1008A000A8040020B00800207C02002080B483B09F
:1008B00000AF78600B46FB70FB78002B06D009492F
:1008C000084B9A697B6813438B6106E00549054B29
:1008D0009A697B68DB4313408B610C37BD465DF83A
:1008E000047B70470010024080B487B000AFF8600E
:1008F000B9607A60FB687B61BB683B6107E07B693C
:100900005A1C7A613A69511C396112781A707B68F5
:100910005A1E7A60002BF2D11C37BD465DF8047B6D
:10092000704700BF80B487B000AFF860B9607A60EC
:10093000FB687B6105E07B695A1C7A61BA68D2B2B8
:100940001A707B685A1E7A60002BF4D11C37BD46A2
:100950005DF8047B704700BF80B489B000AFF860D9
:10096000B9607A60FB68FB61BB68BB6100237B6197
:1009700000BF7B685A1E7A60002B0DD0FB695A1CA1
:10098000FA611B781946BB695A1CBA611B78CB1AED
:100990007B617B69002BECD07B6918462437BD4610
:1009A0005DF8047B704700BF80B483B000AF78600F
:1009B000396002E07B6801337B607B681B78002B29
:1009C00005D07B681B781A463B689A42F2D17B6857
:1009D0001B7818460C37BD465DF8047B704700BF96
:1009E00080B584B000AF786039607B68DB6AFB60FB
:1009F000FA683B689A424BD07B681B79002B32D057
:100A00007B685A787B68303310461946FA680123B0
:100A1000FFF7ECFC0346002B01D0012339E07B6893
:100A200000221A717B681A6A7B68DB691A44FB68CA
:100A30009A4218D97B68DB78FB7211E07B68DB692E
:100A4000FA681344FB607B685A787B683033104641
:100A50001946FA680123FFF7C9FCFB7A013BFB72D8
:100A6000FB7A012BEAD83B68002B11D07B685A78BF
:100A70007B683033104619463A680123FFF780FC43
:100A80000346002B01D0012303E07B683A68DA6259
:100A9000002318461037BD4680BD00BF80B584B026
:100AA00000AF786078680021FFF79AFF0346FB7378
:100AB000FB7B002B40F092807B681B78032B40F07F
:100AC00081807B685B79002B7CD07B680022DA62B6
:100AD0007B683033184600214FF40072FFF722FF85
:100AE0007B68552283F82E227B68AA2283F82F2266
:100AF0007B68522283F830207B68522283F83120B1
:100B00007B68612283F832207B68412283F833209E
:100B10007B68722283F814227B68722283F8152284
:100B20007B68412283F816227B68612283F81722B2
:100B30007B681B69DAB27B6883F818227B681B69C3
:100B40009BB21B0A9BB2DAB27B6883F819227B68DE
:100B50001B691B0CDAB27B6883F81A227B681B695D
:100B60001B0EDAB27B6883F81B227B68DB68DAB283
:100B70007B6883F81C227B68DB689BB21B0A9BB2F4
:100B8000DAB27B6883F81D227B68DB681B0CDAB263
:100B90007B6883F81E227B68DB681B0EDAB27B68F9
:100BA00083F81F227B6859787B6803F130027B68E9
:100BB0005B69084611461A460123FFF717FC7B685C
:100BC00000225A717B685B78184600210022FFF7EB
:100BD0003FFC0346002B01D00123FB73FB7B18462F
:100BE0001037BD4680BD00BF80B483B000AF7860D1
:100BF00039603B68023B3B607B689B699A1E3B689F
:100C00009A4201D8002308E07B689B781A463B682B
:100C100003FB02F27B689B6A134418460C37BD46FF
:100C20005DF8047B704700BF80B586B000AF786088
:100C300039603B68012B04D97B689A693B689A420A
:100C400001D8012398E07B681B78022B48D0032B46
:100C500067D0012B40F08E803B687B617B695B082D
:100C60007A6913447B617B681A6A7B695B0A134467
:100C700078681946FFF7B4FE0346002B00D079E0F0
:100C80007B69C3F308037A68134493F830303B61FF
:100C90007B6901337B617B681A6A7B695B0A134459
:100CA00078681946FFF79CFE0346002B00D061E0F0
:100CB0007B69C3F308037A68134493F830301B024E
:100CC0001A463B6913433B613B6803F00103002B69
:100CD00002D03B691B094FE03B69C3F30B034BE0B8
:100CE0007B681A6A3B681B0A134478681946FFF749
:100CF00077FE0346002B00D03CE03B685B0003F42A
:100D0000FF7330337A681344FB60FB6801331B7850
:100D10001B029AB2FB681B789BB213439BB29BB237
:100D20002AE07B681A6A3B68DB0913447868194635
:100D3000FFF756FE0346002B00D01BE03B689B00EC
:100D400003F4FE7330337A681344FB60FB680333AB
:100D50001B781A06FB6802331B781B041343FA68DE
:100D60000132127812021343FA681278134323F007
:100D7000704301E04FF0FF3318461837BD4680BD81
:100D800080B588B000AFF860B9607A60BB68012BAD
:100D900004D9FB689A69BB689A4202D80223FB77A0
:100DA000E3E0FB681B78022B70D0032B00F09280ED
:100DB000012B40F0D580BB68BB61BB695B08BA6999
:100DC0001344BB61FB681A6ABB695B0A1344F86889
:100DD0001946FFF705FE0346FB77FB7F002B00D08B
:100DE000C0E0BB69C3F308033033FA6813447B6186
:100DF000BB6803F00103002B0DD07B691B78DBB2CD
:100E000003F00F03DAB27B68DBB21B01DBB21343E2
:100E1000DBB2DBB201E07B68DBB27A691370BB69DD
:100E20000133BB61FB6801221A71FB681A6ABB6956
:100E30005B0A1344F8681946FFF7D2FD0346FB77B7
:100E4000FB7F002B00D08DE0BB69C3F30803303378
:100E5000FA6813447B61BB6803F00103002B03D0E5
:100E60007B681B09DBB20EE07B691B78DBB223F0E9
:100E70000F03DAB27B681B0ADBB203F00F03DBB2AD
:100E80001343DBB2DBB27A6913706BE0FB681A6A5A
:100E9000BB681B0A1344F8681946FFF7A1FD034617
:100EA000FB77FB7F002B00D05CE0BB685B0003F4AA
:100EB000FF733033FA6813447B617B68DAB27B6975
:100EC0001A707B6901337A6892B2120A92B2D2B276
:100ED0001A7047E0FB681A6ABB68DB091344F868BC
:100EE0001946FFF77DFD0346FB77FB7F002B00D003
:100EF00038E0BB689B0003F4FE733033FA68134498
:100F00007B617B6903331B781A067B6902331B788C
:100F10001B0413437A6901321278120213437A696F
:100F20001278134303F070437A6813437B607B6845
:100F3000DAB27B691A707B6901337A6892B2120A5D
:100F400092B2D2B21A707B6902337A68120CD2B2B2
:100F50001A707B6903337A68120ED2B21A7001E0FC
:100F60000223FB77FB6801221A71FB7F18462037AA
:100F7000BD4680BD80B584B000AF786039603B6805
:100F8000012B04D97B689A693B689A4202D80223F4
:100F9000FB7337E00023FB732FE078683968FFF7B5
:100FA00043FEB860BB68002B00D12BE0BB68012B6F
:100FB00002D10223FB7325E0BB68B3F1FF3F02D1EE
:100FC0000123FB731EE0786839680022FFF7D8FE22
:100FD0000346FB73FB7B002B00D013E07B681B698F
:100FE000B3F1FF3F07D07B681B695A1C7B681A610D
:100FF0007B6801225A71BB683B607B689A693B68D9
:101000009A42CAD8FB7B18461037BD4680BD00BF48
:1010100080B586B000AF786039603B68002B0DD199
:101020007B68DB683B613B69002B04D07B689A6975
:101030003B699A4215D801233B6112E07868396810
:10104000FFF7F2FDB860BB68012B01D8012366E011
:101050007B689A69BB689A4201D9BB685FE03B68CC
:101060003B613B697B617B6901337B617B689A698A
:101070007B699A4207D802237B617A693B699A426D
:1010800001D900234BE078687969FFF7CDFDB8609E
:10109000BB68002B0CD100BF786879696FF0704293
:1010A000FFF76EFE0346FB73FB7B002B1AD10FE0AC
:1010B000BB68B3F1FF3F02D0BB68012B01D1BB6815
:1010C0002DE07A693B699A4201D1002327E0CAE703
:1010D0003B68002B06D0786839687A69FFF750FEC4
:1010E0000346FB73FB7B002B10D17B687A69DA60C7
:1010F0007B681B69B3F1FF3F10D07B681B695A1EE8
:101100007B681A617B6801225A7107E0FB7B012B27
:1011100002D14FF0FF3300E001237B617B69184669
:101120001837BD4680BD00BF80B584B000AF786081
:101130000B467B807B687A88DA807B689B68FB60E3
:10114000FB68012B05D07B681B689A69FB689A4293
:1011500001D8022365E0FB68002B08D17B681B687F
:101160001B78032B03D17B681B685B6AFB60FB6801
:10117000002B14D17B68FA68DA607B681B681B89D6
:101180007A889A4201D302234BE07B681B685B6A32
:101190007A88120992B21A447B681A6136E07B6839
:1011A0001B689B789BB21B017B811BE07B681B68E3
:1011B0001846F968FFF738FDF860FB68B3F1FF3FA8
:1011C00001D101232DE0FB68012B05D97B681B6849
:1011D0009A69FB689A4201D8022322E07A887B89C7
:1011E000D31A7B807A887B899A42DFD27B68FA683F
:1011F000DA607B681B681846F968FFF7F5FC024661
:101200007B881B099BB21A447B681A617B681A6849
:101210007B8803F00F035B0130331A447B685A610B
:10122000002318461037BD4680BD00BF90B585B07D
:1012300000AF786039607B68DB8801333B813B8994
:10124000002B03D07B681B69002B01D10423BCE079
:101250003B8903F00F039BB2002B40F0A8807B6812
:101260001B695A1C7B681A617B68DB68002B08D1FC
:101270007B681B681B893A899A42C0F098800423D6
:10128000A3E03B891B099BB21A467B681B689B78CD
:10129000013B1340002B40F08A807B681A687B6812
:1012A000DB6810461946FFF7BFFCF860FB68012BAE
:1012B00001D8022389E0FB68B3F1FF3F01D101238C
:1012C00083E07B681B689A69FB689A4263D83B6835
:1012D000002B01D1042378E07B681A687B68DB6807
:1012E00010461946FFF794FEF860FB68002B01D109
:1012F00007236AE0FB68012B01D1022365E0FB684C
:10130000B3F1FF3F01D101235FE07B681B68184602
:101310000021FFF765FB0346002B01D0012354E0B9
:101320007B681B683033184600214FF40072FFF7CA
:10133000F9FA7B681C687B681B681846F968FFF738
:1013400053FC0346E3620023FB7216E07B681B68D4
:1013500001221A717B681B6818460021FFF740FBC9
:101360000346002B01D001232FE07B681B68DA6A5B
:101370000132DA62FB7A0133FB727B681B689B786F
:10138000FA7A9A42E2D37B681B687A681268D16A5B
:10139000FA7A8A1ADA627B68FA68DA607B681B6814
:1013A0001846F968FFF720FC02467B681A617B68E3
:1013B0003A89DA807B681A683B8903F00F035B0186
:1013C00030331A447B685A61002318461437BD46EF
:1013D00090BD00BF80B586B000AF7860786800210E
:1013E000FFF7A2FE0346FB75FB7D002B01D0FB7DC2
:1013F00035E07B681A687B681B6910461946FFF761
:10140000EFFA0346FB75FB7D002B00D026E07B68DE
:101410005B693B613B691B78FB73FB7B002B02D153
:101420000423FB751AE03B690B331B7803F00803B8
:10143000002B0AD17B689B69386919460B22FFF79C
:101440008BFA0346002B00D108E078680021FFF7F3
:10145000EDFE0346FB75FB7D002BCAD0FB7D1846D5
:101460001837BD4680BD00BF80B584B000AF78603E
:1014700078680021FFF758FE0346FB73FB7B002BC7
:1014800020D17B681A687B681B6910461946FFF7F4
:10149000A7FA0346FB73FB7B002B00D012E07B68AE
:1014A0005B691B78BB73BB7BE52B0BD0BB7B002B35
:1014B00008D078680121FFF7B9FE0346FB73FB7B78
:1014C000002BDED0FB7B002B1FD17B681A687B686A
:1014D0001B6910461946FFF783FA0346FB73FB7B33
:1014E000002B12D17B685B69BB60B86800212022A9
:1014F000FFF718FA7B689B69B86819460B22FFF75B
:10150000F3F97B681B6801221A71FB7B18461037C0
:10151000BD4680BD80B58AB000AF786039607B6819
:101520009B697B61786920210B22FFF7FBF900237F
:1015300087F827300023BB61BB69FB6108233B624E
:101540003B681B683B61FB695A1CFA613A691344AA
:101550001B7887F8263097F82630202B40F29980A8
:1015600097F826302F2B00F0948097F826305C2BCC
:1015700000F08F8097F826302E2B03D0BA693B6A93
:101580009A4212D33B6A082B03D197F826302E2BB0
:1015900001D00623BDE00823BB610B233B6297F813
:1015A00027309B0087F8273072E097F826305BB22F
:1015B000002B05DA97F8273043F0030387F827302C
:1015C00097F82630802B2ED997F82630FF2B2AD07B
:1015D000FB695A1CFA613A6913441B78FB73FB7B65
:1015E0003F2B02D9FB7B7E2B06D9FB7B5BB2002B0A
:1015F00007DAFB7BFF2B04D03B6A5A1EBB699A4279
:1016000001D8062385E0BB695A1CBA617A69134484
:1016100097F826201A70BB695A1CBA617A6913447C
:10162000FA7B1A7034E097F826303C481946FFF7E9
:10163000BBF90346002B01D006236AE097F8263059
:10164000402B0AD997F826305A2B06D897F827301E
:1016500043F0020387F8273012E097F82630602B1A
:101660000ED997F826307A2B0AD897F8273043F00E
:10167000010387F8273097F82630203B87F826307B
:10168000BB695A1CBA617A69134497F826201A700C
:1016900059E73A69FB691A443B681A6097F82630A3
:1016A000202B01D8042300E0002387F82630BB69F3
:1016B000002B01D106232CE07B691B78E52B02D19E
:1016C0007B6905221A703B6A082B04D197F82730F2
:1016D0009B0087F8273097F8273003F00303012B8E
:1016E00005D197F8263043F0100387F8263097F895
:1016F000273003F00C03042B05D197F8263043F074
:10170000080387F826307B690B3397F826201A7078
:10171000002318462837BD4680BD00BFA43A000804
:1017200080B584B000AF786039603B681B782F2BA0
:1017300003D03B681B785C2B02D13B6801333B60D4
:101740007B6800229A603B681B781F2B09D8786859
:101750000021FFF7E9FC0346FB737B6800225A6116
:1017600053E03B4678681946FFF7D4FE0346FB7307
:10177000FB7B002B00D048E07868FFF72BFE034688
:10178000FB737B689B69DB7ABB73FB7B002B0CD004
:10179000FB7B042B00D038E0BB7B03F00403002B61
:1017A00002D10523FB7330E02FE0BB7B03F0040381
:1017B000002B00D029E07B685B69BB60BB680B3302
:1017C0001B7803F01003002B02D10523FB731CE0F0
:1017D000BB6815331B781B029AB2BB6814331B78A5
:1017E0009BB213439BB29BB21B04BA681B321278A4
:1017F000120291B2BA681A32127892B20A4392B2C5
:1018000092B21A437B689A60ABE7FB7B18461037AD
:10181000BD4680BD80B582B000AF786039607B681E
:101820005A787B683033104619463A680123FEF730
:10183000A7FD0346002B01D0032343E07B6893F808
:101840002F321B029AB27B6893F82E329BB213435D
:101850009BB21BB21D4A934201D0022332E07B6847
:1018600093F869301A067B6893F868301B041343B9
:101870007A6892F86720120213437A6892F8662019
:10188000134323F07F43124A934201D1002319E00E
:101890007B6893F885301A067B6893F884301B04C4
:1018A00013437A6892F88320120213437A6892F8FD
:1018B0008220134323F07F43054A934201D1002342
:1018C00000E0012318460837BD4680BD55AAFFFF3A
:1018D0004641540080B592B000AFF860B96013463D
:1018E000FB71FB681B68FB62FB6A1B78303B3B6447
:1018F0003B6C092B0BD8FB6A01331B783A2B06D1C2
:10190000FB6A0233FB62FB68FA6A1A6001E000239B
:101910003B643B6C002B01D00B2363E2A64A3B6C7B
:1019200052F82330BB62BB68BA6A1A60BB6A002BEC
:1019300001D10C2356E2BB6A1B78002B1AD0BB6A7C
:101940005B781846FEF702FD034687F8273097F8C4
:10195000273003F00103002B0CD1FB79002B07D0BB
:1019600097F8273003F00403002B01D00A2339E253
:10197000002337E2BB6A00221A703B6CDAB2BB6A02
:101980005A70BB6A5B781846FEF7C0FC034687F8BE
:10199000273097F8273003F00103002B01D00323F1
:1019A00020E2FB79002B07D097F8273003F00403DF
:1019B000002B01D00A2315E20023FB63B86AF96B00
:1019C000FFF728FF034687F8473097F84730012B89
:1019D00022D1BB6A03F5F7733B623B6A04331B7881
:1019E000002B19D03B6A0B331B781A063B6A0A336B
:1019F0001B781B0413433A6A09321278120213430C
:101A00003A6A083212781343FB63B86AF96BFFF73E
:101A100001FF034687F8473097F84730032B01D181
:101A20000123DFE197F84730002B01D00D23D9E1E6
:101A3000BB6A93F83C301B029AB2BB6A93F83B3006
:101A40009BB213439BB21BB2B3F5007F01D00D23B1
:101A5000C8E1BB6A93F847301B029AB2BB6A93F89D
:101A600046309BB213439BB29BB2BB63BB6B002B54
:101A700012D1BB6A93F857301A06BB6A93F85630F6
:101A80001B041343BA6A92F8552012021343BA6A30
:101A900092F854201343BB63BB6ABA6BDA61BB6A2A
:101AA00093F84030FB77BB6AFA7FDA70FB7F012B3B
:101AB00004D0FB7F022B01D00D2393E1FA7FBB6B97
:101AC00002FB03F3BB63BB6A93F83D30FB77BB6A51
:101AD000FA7F9A70FB7F002B05D0FA7FFB7F013BDA
:101AE0001340002B01D00D237CE1BB6A93F84230F8
:101AF0001B029AB2BB6A93F841309BB213439BB26C
:101B00009AB2BB6A1A81BB6A1B8903F00F039BB2AE
:101B1000002B01D00D2365E1BB6A93F844301B0212
:101B20009AB2BB6A93F843309BB213439BB29BB209
:101B30007B637B6B002B12D1BB6A93F853301A0680
:101B4000BB6A93F852301B041343BA6A92F85120CF
:101B500012021343BA6A92F8502013437B63BB6AA4
:101B600093F83F301B029AB2BB6A93F83E309BB2A7
:101B700013439BB2BB83BB8B002B01D10D2331E1FF
:101B8000BA8BBB6B1344BA6A1289120992B213441E
:101B9000BB617A6BBB699A4201D20D2322E17A6B59
:101BA000BB69D31ABA6A9278B3FBF2F37B617B69A3
:101BB000002B03D10D2315E128000020012387F815
:101BC00047307B6940F6F572934202D9022387F8C9
:101BD00047307B694FF6F572934202D9032387F8A9
:101BE00047307B699A1CBB6A9A61FA6BBB691A44DD
:101BF000BB6A9A62BA8BFB6B1A44BB6A1A6297F88B
:101C00004730032B1ED1BB6A1B89002B01D00D234B
:101C1000E8E0BB6A93F85F301A06BB6A93F85E305F
:101C20001B041343BA6A92F85D2012021343BA6A86
:101C300092F85C201A43BB6A5A62BB6A9B699B009C
:101C40003B631FE0BB6A1B89002B01D10D23C9E058
:101C5000BB6A1A6ABB6B1A44BB6A5A6297F8473070
:101C6000022B03D1BB6A9B695B000AE0BB6A9A69DD
:101C700013465B0013445A08BB6A9B6903F00103D7
:101C800013443B63BB6ADA693B6B03F2FF135B0AE5
:101C90009A4201D20D23A5E0BB6A4FF0FF321A61D0
:101CA000BB6A0022DA6097F84730032B40F085804A
:101CB000BB6A00225A71BB6A93F861301B029AB268
:101CC000BB6A93F860309BB213439BB29BB21A4637
:101CD000FB6B1A44BB6A5A61BB6A5978BB6A03F151
:101CE0003002BB6A5B69084611461A460123FEF7BB
:101CF00047FB0346002B60D1BB6A93F82F321B02CF
:101D00009AB2BB6A93F82E329BB213439BB21BB2BA
:101D1000364A934251D1BB6A93F833301A06BB6AF4
:101D200093F832301B041343BA6A92F8312012023E
:101D30001343BA6A92F8302013432D4A93423CD1A0
:101D4000BB6A93F817321A06BB6A93F816321B0463
:101D50001343BA6A92F8152212021343BA6A92F830
:101D600014221343234A934227D1BB6A93F81F32AC
:101D70001A06BB6A93F81E321B041343BA6A92F820
:101D80001D2212021343BA6A92F81C221A43BB6A3C
:101D9000DA60BB6A93F81B321A06BB6A93F81A32F0
:101DA0001B041343BA6A92F8192212021343BA6A47
:101DB00092F818221A43BB6A1A61BB6A97F8472047
:101DC0001A700D4B1B8801339AB20B4B1A800A4BC9
:101DD0001A88BB6ADA80BB6A0022DA62BB6A002218
:101DE0001A71002318464837BD4680BD55AAFFFF2B
:101DF00052526141727241612C00002080B582B064
:101E000000AF78600B467B807B68002B08D07B6836
:101E10001B78002B04D07B68DB887A889A4201D03B
:101E200009230CE07B685B781846FEF78FFA0346BF
:101E300003F00103002B01D0032300E00023184628
:101E40000837BD4680BD00BF80B485B000AF0346F3
:101E50003960FB71FB79002B01D00B2316E0FB7975
:101E60000D4A52F82330FB60FB68002B02D0FB6860
:101E700000221A703B68002B02D03B6800221A70C7
:101E8000FB7905493A6841F82320002318461437A6
:101E9000BD465DF8047B70472800002080B592B0F5
:101EA00000AFF860B9601346FB71FB6800221A604E
:101EB000FB7903F01F03FB71FB7923F00103DBB215
:101EC00007F1080107F11C02084611461A46FFF700
:101ED00001FD034687F8473007F110037B6397F84D
:101EE0004730002B09D1BB6807F11C021046194688
:101EF000FFF716FC034687F847303B6B3B6497F8C7
:101F00004730002B05D13B6C002B02D1062387F80C
:101F10004730FB7903F01C03002B00F0B28097F8E8
:101F20004730002B12D097F84730042B07D107F128
:101F30001C031846FFF798FA034687F84730FB79E9
:101F400043F00803FB713B6B3B6412E0FB7903F049
:101F50000403002B03D0082387F8473009E03B6CCB
:101F60000B331B7803F01103002B02D0072387F8F3
:101F7000473097F84730002B40F08280FB7903F020
:101F80000803002B7CD0FEF7B1FAF8633B6C0E33EC
:101F9000FA6BD2B21A703B6C0F33FA6B92B2120A20
:101FA00092B2D2B21A703B6C1033FA6B120CD2B2EE
:101FB0001A703B6C1133FA6B120ED2B21A703B6C72
:101FC0000B3300221A703B6C1C3300221A703B6CDE
:101FD0001D3300221A703B6C1E3300221A703B6CBA
:101FE0001F3300221A703B6C15331B781B029AB208
:101FF0003B6C14331B789BB213439BB29BB21B0404
:102000003A6C1B321278120291B23A6C1A32127880
:1020100092B20A4392B292B21343BB633B6C1A333F
:1020200000221A703B6C1B3300221A703B6C143375
:1020300000221A703B6C153300221A70FB690122D2
:102040001A71BB6B002B1BD0FB69DB6AFB63FB695E
:102050001846B96BFEF78EFF034687F8473097F8AE
:102060004730002B0CD1FB69BA6B013ADA60FB698F
:102070001846F96BFEF7B4FC034687F847301EE0BC
:102080001DE097F84730002B19D13B6C0B331B78C0
:1020900003F01003002B03D0042387F847300EE031
:1020A000FB7903F00203002B09D03B6C0B331B7848
:1020B00003F00103002B02D0072387F8473097F87D
:1020C0004730002B0FD1FB7903F00803002B03D01E
:1020D000FB7943F02003FB71FB69DA6AFB68DA6184
:1020E000FB683A6C1A6297F84730002B3FD1FB68C7
:1020F000FA799A713B6C15331B781B029AB23B6CD0
:1021000014331B789BB213439BB29BB21B043A6CF3
:102110001B321278120291B23A6C1A32127892B2D1
:102120000A4392B292B21A43FB681A613B6C1F33A6
:102130001B781A063B6C1E331B781B0413433A6C46
:102140001D321278120213433A6C1C3212781A4371
:10215000FB68DA60FB6800229A60FB6800229A61E3
:10216000FA69FB681A60FB69DA88FB689A8097F85D
:10217000473018464837BD4680BD00BF80B58CB09B
:1021800000AFF860B9607A603B60BB687B623B6817
:1021900000221A60FB681A68FB689B881046194683
:1021A000FFF72CFE034687F8233097F82330002BE7
:1021B00002D097F823303BE1FB689B79DBB25BB23E
:1021C000002B01DA022333E1FB689B7903F0010362
:1021D000002B01D107232BE1FB68DA68FB689B68C1
:1021E000D31AFB617A68FB699A4201D9FB697B606B
:1021F00019E1FB689B68C3F30803002B40F0E580FE
:10220000FB689B685B0ADAB2FB681B689B78013B42
:10221000DBB21340FB76FB7E002B2CD1FB689B6866
:10222000002B02D1FB681B6908E0FB681A68FB6899
:102230005B6910461946FEF7F7FC03463B613B69B4
:10224000012B08D8FB689B7963F07F03DAB2FB6847
:102250009A710223ECE03B69B3F1FF3F08D1FB68C0
:102260009B7963F07F03DAB2FB689A710123DFE0A8
:10227000FB683A695A61FB681A68FB685B6910463B
:102280001946FEF7B1FC78617B69002B08D1FB6829
:102290009B7963F07F03DAB2FB689A710223C7E08F
:1022A000FB7E7A6913447B617B685B0ABB62BB6A15
:1022B000002B44D0FA7EBB6A1344FA681268927805
:1022C000934206D9FB681B689B781A46FB7ED31A9B
:1022D000BB62FB681B685A78BB6ADBB21046796A3E
:1022E0007A69FEF74DF80346002B08D0FB689B790E
:1022F00063F07F03DAB2FB689A71012398E0FB6810
:102300009B7903F04003002B15D0FB689A697B6929
:10231000D21ABB6A9A420ED2FB689A697B69D31AB9
:102320005B027A6A1A44FB682433104619464FF45C
:102330000072FEF7D9FABB6A5B02FB625FE0FB68E2
:102340009B7903F04003002B20D0FB681B68597871
:10235000FB6803F12402FB689B69084611461A4694
:102360000123FEF743F80346002B08D0FB689B7956
:1023700063F07F03DAB2FB689A71012358E0FB68CF
:102380009B7923F04003DAB2FB689A71FB689A6983
:102390007B699A4216D0FB681B685A78FB68243325
:1023A000104619467A690123FDF7EAFF0346002B20
:1023B00008D0FB689B7963F07F03DAB2FB689A71FF
:1023C000012335E0FB687A699A61FB689B68C3F377
:1023D0000803C3F50073FB62FA6A7B689A4201D96D
:1023E0007B68FB62FB689B68C3F308032033FA68D1
:1023F00013440433786A1946FA6AFEF775FA7A6A62
:10240000FB6A13447B62FB689A68FB6A1A44FB68A8
:102410009A603B681A68FB6A1A443B681A607A68DB
:10242000FB6AD31A7B607B68002B7FF4E2AE00234B
:1024300018463037BD4680BD80B58AB000AFF86021
:10244000B9607A603B60BB68BB613B6800221A6080
:10245000FB681A68FB689B8810461946FFF7CEFC9C
:102460000346FB75FB7D002B01D0FB7D6AE1FB6819
:102470009B79DBB25BB2002B01DA022362E1FB68DD
:102480009B7903F00203002B01D107235AE1FB687B
:10249000DA687B681A44FB68DB689A4201D2002341
:1024A0007B6039E1FB689B68C3F30803002B40F0B5
:1024B000FE80FB689B685B0ADAB2FB681B689B784E
:1024C000013BDBB21340BB75BB7D002B3DD1FB68EC
:1024D0009B68002B10D1FB681B697B627B6A002B19
:1024E00013D1FB681B6818460021FEF791FD786246
:1024F000FB687A6A1A6108E0FB681A68FB685B6926
:1025000010461946FEF784FD78627B6A002B00D1E5
:1025100006E17B6A012B08D1FB689B7963F07F039E
:10252000DAB2FB689A7102230CE17B6AB3F1FF3FD8
:1025300008D1FB689B7963F07F03DAB2FB689A717C
:102540000123FFE0FB687A6A5A61FB689B7903F01C
:102550004003002B20D0FB681B685978FB6803F10F
:102560002402FB689B69084611461A460123FDF7C1
:102570003DFF0346002B08D0FB689B7963F07F0387
:10258000DAB2FB689A710123DCE0FB689B7923F0E7
:102590004003DAB2FB689A71FB681A68FB685B69F2
:1025A00010461946FEF720FB38613B69002B08D125
:1025B000FB689B7963F07F03DAB2FB689A710223B0
:1025C000C0E0BB7D3A6913443B617B685B0AFB61F9
:1025D000FB69002B46D0BA7DFB691344FA68126888
:1025E0009278934206D9FB681B689B781A46BB7D9C
:1025F000D31AFB61FB681B685A78FB69DBB2104693
:10260000B9693A69FDF7F2FE0346002B08D0FB6872
:102610009B7963F07F03DAB2FB689A71012391E042
:10262000FB689A693B69D21AFB699A4216D2FB6829
:1026300003F12401FB689A693B69D31A5B02BA690A
:102640001344084619464FF40072FEF74DF9FB6833
:102650009B7923F04003DAB2FB689A71FB695B0255
:102660003B6245E0FB689A693B699A421CD0FB6873
:102670009A68FB68DB689A4216D2FB681B685A7836
:10268000FB682433104619463A690123FDF778FEAA
:102690000346002B08D0FB689B7963F07F03DAB216
:1026A000FB689A7101234DE0FB683A699A61FB6807
:1026B0009B68C3F30803C3F500733B623A6A7B6807
:1026C0009A4201D97B683B62FB689B68C3F30803AD
:1026D0002033FA68134404331846B9693A6AFEF79E
:1026E00003F9FB689B7943F04003DAB2FB689A7107
:1026F000BA693B6A1344BB61FB689A683B6A1A4437
:10270000FB689A603B681A683B6A1A443B681A6027
:102710007A683B6AD31A7B607B68002B7FF4C2AE79
:10272000FB689A68FB68DB689A4203D9FB689A6881
:10273000FB68DA60FB689B7943F02003DAB2FB6840
:102740009A71002318462837BD4680BD80B586B0F3
:1027500000AF78607B681A687B689B8810461946D2
:10276000FFF74CFB0346FB75FB7D002B40F0AB8075
:102770007B689B7903F02003002B00F0A4807B682A
:102780009B7903F04003002B19D07B681B685978B4
:102790007B6803F124027B689B69084611461A4650
:1027A0000123FDF723FE0346002B01D001238BE01C
:1027B0007B689B7923F04003DAB27B689A717B686F
:1027C0001A687B68DB6910461946FEF709F903466B
:1027D000FB75FB7D002B76D17B681B6A3B613B69F7
:1027E0000B333A690B32127842F02002D2B21A70DF
:1027F0003B691C337A68D268D2B21A703B691D33C8
:102800007A68D26892B2120A92B2D2B21A703B6956
:102810001E337A68D268120CD2B21A703B691F3329
:102820007A68D268120ED2B21A703B691A337A688B
:102830001269D2B21A703B691B337A68126992B27C
:10284000120A92B2D2B21A703B6914337A681269D2
:10285000120CD2B21A703B6915337A681269120CE5
:1028600092B2120A92B2D2B21A70FDF73FFEF8602D
:102870003B691633FA68D2B21A703B691733FA68AB
:1028800092B2120A92B2D2B21A703B691833FA6845
:10289000120CD2B21A703B691933FA68120ED2B216
:1028A0001A707B689B7923F02003DAB27B689A71F7
:1028B0007B681B6801221A717B681B681846FEF74B
:1028C000EDF80346FB75FB7D18461837BD4680BD05
:1028D00080B584B000AF78607868FFF737FF0346B3
:1028E000FB73FB7B002B02D17B6800221A60FB7B11
:1028F00018461037BD4680BD80B588B000AF7860FF
:1029000039607B681A687B689B8810461946FFF718
:1029100075FA0346FB75FB7D002B01D0FB7D40E182
:102920007B689B79DBB25BB2002B01DA022338E1D2
:102930007B68DA683B689A4208D27B689B7903F02F
:102940000203002B02D17B68DB683B607B689B68DD
:102950003B610023BB617B68BA699A603B68002BCE
:1029600000F0C1807B681B689B785B02FB603B6961
:10297000002B1BD03B685A1EFB68B2FBF3F23B698D
:10298000591EFB68B1FBF3F39A420FD33B695A1E01
:10299000FB685B421A407B689A607B689B683A6878
:1029A000D31A3B607B685B69FB612BE07B681B692A
:1029B000FB61FB69002B22D17B681B681846002154
:1029C000FEF726FBF861FB69012B08D17B689B7938
:1029D00063F07F03DAB27B689A710223E1E0FB695E
:1029E000B3F1FF3F08D17B689B7963F07F03DAB2D4
:1029F0007B689A710123D4E07B68FA691A617B686D
:102A0000FA695A61FB69002B6DD045E07B689B79C0
:102A100003F00203002B0CD07B681B681846F96991
:102A2000FEF7F6FAF861FB69002B09D1FB683B6001
:102A300036E07B681B681846F969FEF7F5F8F8611F
:102A4000FB69B3F1FF3F08D17B689B7963F07F039B
:102A5000DAB27B689A710123A3E0FB69012B05D9E7
:102A60007B681B689A69FB699A4208D87B689B79E6
:102A700063F07F03DAB27B689A71022391E07B688E
:102A8000FA695A617B689A68FB681A447B689A60A5
:102A90003A68FB68D31A3B603A68FB689A42B5D83B
:102AA0007B689A683B681A447B689A603B68C3F30A
:102AB0000803002B17D07B681B681846F969FEF7DE
:102AC00093F8B861BB69002B08D17B689B7963F0F0
:102AD0007F03DAB27B689A71022362E03B685B0A8B
:102AE000BA691344BB617B689B68C3F30803002B7E
:102AF00045D07B689A69BB699A4240D07B689B79D4
:102B000003F04003002B20D07B681B6859787B685A
:102B100003F124027B689B69084611461A4601238B
:102B2000FDF764FC0346002B08D07B689B7963F0BB
:102B30007F03DAB27B689A71012332E07B689B796C
:102B400023F04003DAB27B689A717B681B685A787D
:102B50007B68243310461946BA690123FDF710FC3F
:102B60000346002B08D07B689B7963F07F03DAB2C1
:102B70007B689A71012314E07B68BA699A617B686B
:102B80009A687B68DB689A420AD97B689A687B6896
:102B9000DA607B689B7943F02003DAB27B689A7134
:102BA000FB7D18462037BD4680BD00BF80B485B090
:102BB00000AF786039600023FB817B681B88FB8154
:102BC000FB8903F44153FB813B681A883B685B88AF
:102BD00013439AB23B689B8813439AB23B68DB88E5
:102BE00013439AB23B681B8913439AB23B685B89D3
:102BF00013439AB23B689B8913439AB23B68DB89C3
:102C000013439AB2FB891343FB817B68FA891A80CC
:102C10007B689B8B9BB223F400639AB27B689A8398
:102C20003B681A8A7B681A821437BD465DF8047BBC
:102C3000704700BF80B483B000AF78600B46FB7074
:102C4000FB78002B08D07B681B889BB243F04003C5
:102C50009AB27B681A8007E07B681B889BB223F0DE
:102C600040039AB27B681A800C37BD465DF8047B3E
:102C7000704700BF80B483B000AF78600B467B80A4
:102C80007B687A889A810C37BD465DF8047B704773
:102C900080B483B000AF78607B689B899BB2184694
:102CA0000C37BD465DF8047B704700BF80B485B02B
:102CB00000AF78600B467B800023FB737B681B8929
:102CC0009AB27B8813409BB2002B02D00123FB7386
:102CD00001E00023FB73FB7B18461437BD465DF80B
:102CE000047B704780B582B000AF0346FB7100BF24
:102CF0000E480221FFF7DAFF0346002BF8D0FB79DC
:102D00009BB20A481946FFF7B5FF00BF07480121EB
:102D1000FFF7CCFF0346002BF8D00448FFF7B8FFBD
:102D2000034618460837BD4680BD00BF003001404D
:102D300080B582B000AF4FF480500121FDF7B6FDA1
:102D40000D200121FDF7B2FDE023BB800323BB7101
:102D50001823FB713B1D14481946FDF7CFFB1023C8
:102D6000BB800323BB711023FB713B1D0E4819462A
:102D7000FDF7C4FB0123BB800323BB714823FB7118
:102D80003B1D0A481946FDF7B9FB07481021FDF71E
:102D900075FC002000F00EF805480121FFF74AFFFE
:102DA0000837BD4680BD00BF00080140000C01404F
:102DB0000030014080B588B000AF0346FB710023AE
:102DC000BB814FF48273FB8100233B8202237B8211
:102DD0000123BB824FF40073FB8200237B83072314
:102DE000BB83FB79002B02D138233B8301E02023F6
:102DF0003B8307F10C0303481946FFF7D7FE203742
:102E0000BD4680BD0030014080B584B000AF0023D6
:102E10007B6000233B810023FB8102E0FB890133BF
:102E2000FB81FB89FF2BF9D90023FB8105E0FF2003
:102E3000FFF758FFFB890133FB81FB89092BF6D98A
:102E40000023FB810FE000200021952200F036FDD9
:102E500003467B737B7B012B02D10023FB8107E0C0
:102E6000FB890133FB81FB8940F6FE729342EAD96C
:102E7000FB8940F6FF72934201D1012310E1082043
:102E80004FF4D571872200F06BFD03467B737B7B8B
:102E9000052B73D1844B012283F84E2083481021E7
:102EA000FDF7ECFBFF20FFF71DFF0023FB811BE07C
:102EB00037200021002200F001FD03467B737B7B5D
:102EC000012B01D07B7BEBE029200021002200F0C8
:102ED000F5FC03467B737B7B002B02D10023FB8137
:102EE00007E0FB890133FB81FB8940F6FE729342C8
:102EF000DED9FB8940F6FF72934222D10023FB8189
:102F00000FE001200021002200F0D8FC03467B7373
:102F10007B7B002B02D10023FB8107E0FB8901337F
:102F2000FB81FB8940F6FE729342EAD9FB8940F6A9
:102F3000FF72934201D10223B2E05B4B002283F87F
:102F40004E200120FFF736FF3B200021012200F038
:102F5000B5FC03467B737B7B002B01D07B7B9FE022
:102F600010204FF40071FF2200F0A8FC03467B7391
:102F70007B7B002B00F093807B7B91E07B7B012BA4
:102F800040F08D80FF20FFF7ADFE0346DBB23B71C2
:102F9000FF20FFF7A7FE0346DBB27B71FF20FFF7A0
:102FA000A1FE0346DBB2BB71FF20FFF79BFE034689
:102FB000DBB2FB713D481021FDF760FBFF20FFF7FE
:102FC00091FEBB79012B6AD1FB79AA2B67D1002333
:102FD000FB811CE037200021002200F06FFC03463B
:102FE0007B737B7B012B01D07B7B59E029204FF049
:102FF0008041002200F062FC03467B737B7B002B48
:1030000002D10023FB8107E0FB890133FB81FB89AF
:1030100040F6FE729342DDD9FB8940F6FF7293427F
:1030200001D103233CE03A200021002200F098FC6B
:1030300003467B737B7B002B01D07B7B30E0FF2042
:10304000FFF750FE0346DBB23B71FF20FFF74AFE5D
:103050000346DBB27B71FF20FFF744FE0346DBB281
:10306000BB71FF20FFF73EFE0346DBB2FB710F484A
:103070001021FDF703FBFF20FFF734FE3B7903F03F
:103080004003002B04D0084B042283F84E2003E0B9
:10309000054B022283F84E200120FFF78BFE002310
:1030A00018461037BD4680BDB00C00200008014016
:1030B00080B58CB000AF786009200021FF2200F0BD
:1030C000FDFB034687F82F3097F82F30002B02D0F6
:1030D00097F82F30F7E107F11C0318461021012261
:1030E00000F0F6F90346002B01D00123EBE10A20A2
:1030F0000021FF2200F0E2FB034687F82F3097F80B
:103100002F30002B02D097F82F30DCE107F10C03B1
:1031100018461021012200F0DBF90346002B01D0F4
:103120000223D0E13B7F9B09DAB27B681A703B7FB8
:1031300003F03C039B10DAB27B685A703B7F03F0CC
:103140000303DAB27B689A707A7F7B68DA70BA7FA1
:103150007B681A71FA7F7B685A7197F820309BB2AE
:103160001B019AB27B68DA807B68DB889AB297F899
:1031700021301B09DBB29BB213439AB27B68DA8021
:1031800097F8213003F00F03DAB27B681A7297F8D0
:103190002230DB09DAB27B685A7297F8223003F0EA
:1031A00040039B11DAB27B689A7297F8223003F0E1
:1031B00020035B11DAB27B68DA7297F8223003F0F1
:1031C00010031B11DAB27B681A737B6800225A73F2
:1031D00097F8223003F003039B021A467B681A61BA
:1031E0007B681B6997F8232092001A437B681A6159
:1031F0007B681B6997F824209209D2B21A437B6836
:103200001A6197F8243003F03803DB10DAB27B68D8
:103210001A7597F8243003F00703DAB27B685A7501
:1032200097F825305B09DAB27B689A7597F82530F4
:1032300003F01C039B10DAB27B68DA7597F825302F
:1032400003F00303DBB25B00DAB27B681A767B68BB
:103250001B7EDAB297F82630DB09DBB21343DAB211
:103260007B681A7697F8263003F07C039B10DAB25D
:103270007B685A7697F8263003F00303DBB2DB0055
:10328000DAB27B689A767B689B7EDAB297F8273051
:103290005B09DBB21343DAB27B689A7697F8273082
:1032A00003F01F03DAB27B68DA7697F82830DB097F
:1032B000DAB27B681A7797F8283003F060035B1165
:1032C000DAB27B685A7797F8283003F01C039B101A
:1032D000DAB27B689A7797F8283003F00303DBB201
:1032E0009B00DAB27B68DA777B68DB7FDAB297F82B
:1032F00029309B09DBB21343DAB27B68DA7797F89F
:10330000293003F020035B11DAB27B6883F82020B8
:103310007B68002283F8212097F8293003F001030D
:10332000DAB27B6883F8222097F82A30DB09DAB218
:103330007B6883F8232097F82A3003F040039B1121
:10334000DAB27B6883F8242097F82A3003F0200350
:103350005B11DAB27B6883F8252097F82A3003F0F6
:1033600010031B11DAB27B6883F8262097F82A3005
:1033700003F00C039B10DAB27B6883F8272097F8E0
:103380002A3003F00303DAB27B6883F8282097F829
:103390002B305B08DAB27B6883F829207B68012236
:1033A00083F82A207B6893F84E30042B0CD197F8D1
:1033B00024301B021A467B681A617B681B6997F8E8
:1033C00025201A447B681A617B681B69DA047B68D4
:1033D0005A647B684FF400729A643A7B7B6883F886
:1033E0002C207B7B9BB21B029AB27B68DA857B68C0
:1033F000DB8D9AB2BB7B9BB213439AB27B68DA85B2
:10340000FB7B1B061A467B681A637B681B6B3A7C46
:1034100012041A437B681A637B681B6B7A7C120266
:103420001A437B681A637B681B6BBA7C1A437B6800
:103430001A63FA7C7B6883F834203A7D7B6883F8D2
:1034400035207B7D1B061A467B689A637B689B6BE5
:10345000BA7D12041A437B689A637B689B6BFA7D82
:1034600012021A437B689A637B689B6B3A7E1A430D
:103470007B689A637B6893F83C30DAB27B7E1B09E9
:10348000DBB21343DAB27B6883F83C207B7E9BB2CD
:1034900003F00F039BB21B029AB27B68DA877B684A
:1034A000DB8F9AB2BB7E9BB213439AB27B68DA87FA
:1034B000FB7E5B08DAB27B6883F840207B680122E0
:1034C00083F84120002318463037BD4680BD00BF39
:1034D00090B585B000AF78600B467B8013467B705B
:1034E00025481021FDF7D8F80023FB810DE0FF20CF
:1034F000FFF7F8FB03467B737B7BFE2B02D1002397
:10350000FB8106E0FB890133FB81FB89B3F5FA6F90
:10351000EDD3FB89B3F5FA6F05D117481021FDF7FC
:10352000ADF8012323E00023FB810BE0FB897A68DF
:10353000D418FF20FFF7D6FB0346DBB22370FB89CC
:103540000133FB81FA897B889A42EFD3FF20FFF792
:10355000C9FBFF20FFF7C6FB7B78002B06D006488F
:103560001021FDF78BF8FF20FFF7BCFB0023184666
:103570001437BD4690BD00BF0008014080B584B03F
:1035800000AF78603960134B93F84E30042B02D0B3
:103590007B685B027B6011207968002200F08EF965
:1035A0000346FB73FB7B002B01D001230DE0386841
:1035B0004FF400710122FFF78BFF0346FB730C20D1
:1035C0000021002200F07AF9FB7B18461037BD4637
:1035D00080BD00BFB00C002080B586B000AFF860A1
:1035E000B9607A60234B93F84E30042B02D0FB680D
:1035F0005B02FB601220F968002200F05FF90346CD
:10360000FB74FB7C002B01D001232EE000237B61A7
:103610001AE07B695B02BA68134418464FF40071E4
:103620000022FFF755FF0346002B0AD00C20002193
:10363000002200F043F910481021FDF71FF8022383
:1036400013E07B6901337B617A697B689A42E0D33E
:103650000C200021002200F031F907481021FDF76D
:103660000DF8FF20FFF73EFB002318461837BD4634
:1036700080BD00BFB00C00200008014080B586B0BE
:1036800000AF78603960364B93F84E30042B02D08F
:103690007B685B027B6018207968002200F00EF9DD
:1036A0000346FB73FB7B002B01D0012353E02D4825
:1036B0001021FCF7F1FFFF20FFF714FBFF20FFF7BD
:1036C00011FBFF20FFF70EFBFE20FFF70BFB002393
:1036D000FB8209E03B685A1C3A601B781846FFF7EA
:1036E00001FBFB8A0133FB82FB8AB3F5007FF1D338
:1036F000FF20FFF7F7FAFF20FFF7F4FAFF20FFF7AC
:10370000F1FA0346FB73FB7B03F01F03052B05D087
:1037100014481021FCF7B2FF02231CE000233B6198
:103720000BE03B695A1C3A61B3F5802F05D10D4877
:103730001021FCF7A3FF03230DE0FF20FFF7D2FACF
:103740000346002BEDD007481021FCF797FFFF2020
:10375000FFF7C8FA002318461837BD4680BD00BFE2
:10376000B00C00200008014080B588B000AFF860C0
:10377000B9607A604F4B93F84E30042B02D0FB684F
:103780005B02FB604B4B93F84E30002B04D01720AC
:103790007968002200F092F81920F968002200F000
:1037A0008DF80346FB74FB7C002B01D001237CE0E9
:1037B00041481021FCF770FFFF20FFF793FAFF202C
:1037C000FFF790FAFF20FFF78DFA0023BB6141E07D
:1037D000FC20FFF787FA0023FB8309E0BB685A1C33
:1037E000BA601B781846FFF77DFAFB8B0133FB8329
:1037F000FB8BB3F5007FF1D3FF20FFF773FAFF20B7
:10380000FFF770FAFF20FFF76DFA0346FB74FB7CAD
:1038100003F01F03052B05D027481021FCF72EFFCE
:10382000022342E000237B610BE07B695A1C7A6132
:10383000B3F5802F05D120481021FCF71FFF03238B
:1038400033E0FF20FFF74EFA0346FF2BEDD1BB69B3
:103850000133BB61BA697B689A42B9D3FD20FFF797
:1038600041FA0346FB74FB7C002B01D104231CE0CE
:1038700000237B610BE07B695A1C7A61B3F5802FD2
:1038800005D10D481021FCF7F9FE05230DE0FF20BE
:10389000FFF728FA0346FF2BEDD107481021FCF76C
:1038A000EDFEFF20FFF71EFA002318462037BD4625
:1038B00080BD00BFB00C00200008014080B584B07E
:1038C00000AF03463960FB711346BB71FF20FFF761
:1038D00009FA22481021FCF7DFFEFB7943F0400390
:1038E000DBB21846FFF7FEF93B681B0EDBB2184649
:1038F000FFF7F8F93B681B0CDBB21846FFF7F2F94B
:103900003B681B0ADBB21846FFF7ECF93B68DBB2F9
:103910001846FFF7E7F9BB791846FFF7E3F90023EC
:10392000BB730BE0FF20FFF7DDF90346FB73FB7B66
:10393000FF2B00D005E0BB7B0133BB73BB7BC72BE8
:10394000F0D906481021FCF799FEFF20FFF7CAF9CD
:10395000FB7B18461037BD4680BD00BF0008014004
:1039600080B584B000AF03463960FB711346BB716C
:10397000FF20FFF7B7F91E481021FCF78DFEFB79F9
:1039800043F04003DBB21846FFF7ACF93B681B0E6F
:10399000DBB21846FFF7A6F93B681B0CDBB21846F2
:1039A000FFF7A0F93B681B0ADBB21846FFF79AF94C
:1039B0003B68DBB21846FFF795F9BB791846FFF76D
:1039C00091F90023BB730BE0FF20FFF78BF903464F
:1039D000FB73FB7BFF2B00D005E0BB7B0133BB738C
:1039E000BB7BC72BF0D9FB7B18461037BD4680BD8B
:1039F0000008014080B483B000AF78607B68064A5D
:103A0000136000BF044B1B68002BFBD10C37BD4675
:103A10005DF8047B704700BF3000002080B400AF29
:103A2000184B1B68002B04D0164B1B68013B154A32
:103A30001360154B1B68002B04D0134B1B68013B14
:103A4000114A1360114B1B68002B04D00F4B1B68ED
:103A5000013B0E4A13600E4B1B68002B04D00C4B2D
:103A60005B6801330A4A53600A4B1B68002B04D081
:103A7000084B5B680133074A5360BD465DF8047B21
:103A8000704700BF300000203400002038000020C4
:103A90003C000020440000206C6F6766696C652E56
:103AA00074787400222A2B2C3A3B3C3D3E3F5B5DF0
:043AB0007C7F000017
:103AB40057656C636F6D6520746F20456D62656436
:103AC4006465642044657369676E20576F726C6423
:083AD400202121210000000067
:0400000508000000EF
:00000001FF
